{
	"GitHub/Blockchain/Mandatory_assignment_2/contracts/Bank.sol": {
		"Bank": {
			"abi": [
				{
					"constant": false,
					"inputs": [],
					"name": "getBalance",
					"outputs": [
						{
							"name": "",
							"type": "uint256"
						}
					],
					"payable": false,
					"stateMutability": "nonpayable",
					"type": "function"
				},
				{
					"constant": true,
					"inputs": [
						{
							"name": "",
							"type": "address"
						}
					],
					"name": "balances",
					"outputs": [
						{
							"name": "",
							"type": "uint256"
						}
					],
					"payable": false,
					"stateMutability": "view",
					"type": "function"
				},
				{
					"constant": false,
					"inputs": [
						{
							"name": "amount",
							"type": "uint256"
						}
					],
					"name": "withdraw",
					"outputs": [],
					"payable": false,
					"stateMutability": "nonpayable",
					"type": "function"
				},
				{
					"constant": false,
					"inputs": [],
					"name": "deposit",
					"outputs": [],
					"payable": true,
					"stateMutability": "payable",
					"type": "function"
				}
			],
			"devdoc": {
				"methods": {}
			},
			"evm": {
				"assembly": "    /* \"GitHub/Blockchain/Mandatory_assignment_2/contracts/Bank.sol\":27:447  contract Bank {\r... */\n  mstore(0x40, 0x80)\n  callvalue\n    /* \"--CODEGEN--\":8:17   */\n  dup1\n    /* \"--CODEGEN--\":5:7   */\n  iszero\n  tag_1\n  jumpi\n    /* \"--CODEGEN--\":30:31   */\n  0x0\n    /* \"--CODEGEN--\":27:28   */\n  dup1\n    /* \"--CODEGEN--\":20:32   */\n  revert\n    /* \"--CODEGEN--\":5:7   */\ntag_1:\n    /* \"GitHub/Blockchain/Mandatory_assignment_2/contracts/Bank.sol\":27:447  contract Bank {\r... */\n  pop\n  dataSize(sub_0)\n  dup1\n  dataOffset(sub_0)\n  0x0\n  codecopy\n  0x0\n  return\nstop\n\nsub_0: assembly {\n        /* \"GitHub/Blockchain/Mandatory_assignment_2/contracts/Bank.sol\":27:447  contract Bank {\r... */\n      mstore(0x40, 0x80)\n      jumpi(tag_1, lt(calldatasize, 0x4))\n      calldataload(0x0)\n      0x100000000000000000000000000000000000000000000000000000000\n      swap1\n      div\n      0xffffffff\n      and\n      dup1\n      0x12065fe0\n      eq\n      tag_2\n      jumpi\n      dup1\n      0x27e235e3\n      eq\n      tag_3\n      jumpi\n      dup1\n      0x2e1a7d4d\n      eq\n      tag_4\n      jumpi\n      dup1\n      0xd0e30db0\n      eq\n      tag_5\n      jumpi\n    tag_1:\n      0x0\n      dup1\n      revert\n        /* \"GitHub/Blockchain/Mandatory_assignment_2/contracts/Bank.sol\":354:444  function getBalance()public returns (uint){\r... */\n    tag_2:\n      callvalue\n        /* \"--CODEGEN--\":8:17   */\n      dup1\n        /* \"--CODEGEN--\":5:7   */\n      iszero\n      tag_6\n      jumpi\n        /* \"--CODEGEN--\":30:31   */\n      0x0\n        /* \"--CODEGEN--\":27:28   */\n      dup1\n        /* \"--CODEGEN--\":20:32   */\n      revert\n        /* \"--CODEGEN--\":5:7   */\n    tag_6:\n        /* \"GitHub/Blockchain/Mandatory_assignment_2/contracts/Bank.sol\":354:444  function getBalance()public returns (uint){\r... */\n      pop\n      tag_7\n      jump(tag_8)\n    tag_7:\n      mload(0x40)\n      dup1\n      dup3\n      dup2\n      mstore\n      0x20\n      add\n      swap2\n      pop\n      pop\n      mload(0x40)\n      dup1\n      swap2\n      sub\n      swap1\n      return\n        /* \"GitHub/Blockchain/Mandatory_assignment_2/contracts/Bank.sol\":48:87  mapping(address => uint)public balances */\n    tag_3:\n      callvalue\n        /* \"--CODEGEN--\":8:17   */\n      dup1\n        /* \"--CODEGEN--\":5:7   */\n      iszero\n      tag_9\n      jumpi\n        /* \"--CODEGEN--\":30:31   */\n      0x0\n        /* \"--CODEGEN--\":27:28   */\n      dup1\n        /* \"--CODEGEN--\":20:32   */\n      revert\n        /* \"--CODEGEN--\":5:7   */\n    tag_9:\n        /* \"GitHub/Blockchain/Mandatory_assignment_2/contracts/Bank.sol\":48:87  mapping(address => uint)public balances */\n      pop\n      tag_10\n      0x4\n      dup1\n      calldatasize\n      sub\n        /* \"--CODEGEN--\":13:15   */\n      0x20\n        /* \"--CODEGEN--\":8:11   */\n      dup2\n        /* \"--CODEGEN--\":5:16   */\n      lt\n        /* \"--CODEGEN--\":2:4   */\n      iszero\n      tag_11\n      jumpi\n        /* \"--CODEGEN--\":29:30   */\n      0x0\n        /* \"--CODEGEN--\":26:27   */\n      dup1\n        /* \"--CODEGEN--\":19:31   */\n      revert\n        /* \"--CODEGEN--\":2:4   */\n    tag_11:\n        /* \"GitHub/Blockchain/Mandatory_assignment_2/contracts/Bank.sol\":48:87  mapping(address => uint)public balances */\n      dup2\n      add\n      swap1\n      dup1\n      dup1\n      calldataload\n      0xffffffffffffffffffffffffffffffffffffffff\n      and\n      swap1\n      0x20\n      add\n      swap1\n      swap3\n      swap2\n      swap1\n      pop\n      pop\n      pop\n      jump(tag_12)\n    tag_10:\n      mload(0x40)\n      dup1\n      dup3\n      dup2\n      mstore\n      0x20\n      add\n      swap2\n      pop\n      pop\n      mload(0x40)\n      dup1\n      swap2\n      sub\n      swap1\n      return\n        /* \"GitHub/Blockchain/Mandatory_assignment_2/contracts/Bank.sol\":188:346  function withdraw(uint amount)public {\r... */\n    tag_4:\n      callvalue\n        /* \"--CODEGEN--\":8:17   */\n      dup1\n        /* \"--CODEGEN--\":5:7   */\n      iszero\n      tag_13\n      jumpi\n        /* \"--CODEGEN--\":30:31   */\n      0x0\n        /* \"--CODEGEN--\":27:28   */\n      dup1\n        /* \"--CODEGEN--\":20:32   */\n      revert\n        /* \"--CODEGEN--\":5:7   */\n    tag_13:\n        /* \"GitHub/Blockchain/Mandatory_assignment_2/contracts/Bank.sol\":188:346  function withdraw(uint amount)public {\r... */\n      pop\n      tag_14\n      0x4\n      dup1\n      calldatasize\n      sub\n        /* \"--CODEGEN--\":13:15   */\n      0x20\n        /* \"--CODEGEN--\":8:11   */\n      dup2\n        /* \"--CODEGEN--\":5:16   */\n      lt\n        /* \"--CODEGEN--\":2:4   */\n      iszero\n      tag_15\n      jumpi\n        /* \"--CODEGEN--\":29:30   */\n      0x0\n        /* \"--CODEGEN--\":26:27   */\n      dup1\n        /* \"--CODEGEN--\":19:31   */\n      revert\n        /* \"--CODEGEN--\":2:4   */\n    tag_15:\n        /* \"GitHub/Blockchain/Mandatory_assignment_2/contracts/Bank.sol\":188:346  function withdraw(uint amount)public {\r... */\n      dup2\n      add\n      swap1\n      dup1\n      dup1\n      calldataload\n      swap1\n      0x20\n      add\n      swap1\n      swap3\n      swap2\n      swap1\n      pop\n      pop\n      pop\n      jump(tag_16)\n    tag_14:\n      stop\n        /* \"GitHub/Blockchain/Mandatory_assignment_2/contracts/Bank.sol\":96:180  function deposit()public payable{\r... */\n    tag_5:\n      tag_17\n      jump(tag_18)\n    tag_17:\n      stop\n        /* \"GitHub/Blockchain/Mandatory_assignment_2/contracts/Bank.sol\":354:444  function getBalance()public returns (uint){\r... */\n    tag_8:\n        /* \"GitHub/Blockchain/Mandatory_assignment_2/contracts/Bank.sol\":391:395  uint */\n      0x0\n        /* \"GitHub/Blockchain/Mandatory_assignment_2/contracts/Bank.sol\":414:422  balances */\n      dup1\n        /* \"GitHub/Blockchain/Mandatory_assignment_2/contracts/Bank.sol\":414:434  balances[msg.sender] */\n      0x0\n        /* \"GitHub/Blockchain/Mandatory_assignment_2/contracts/Bank.sol\":423:433  msg.sender */\n      caller\n        /* \"GitHub/Blockchain/Mandatory_assignment_2/contracts/Bank.sol\":414:434  balances[msg.sender] */\n      0xffffffffffffffffffffffffffffffffffffffff\n      and\n      0xffffffffffffffffffffffffffffffffffffffff\n      and\n      dup2\n      mstore\n      0x20\n      add\n      swap1\n      dup2\n      mstore\n      0x20\n      add\n      0x0\n      keccak256\n      sload\n        /* \"GitHub/Blockchain/Mandatory_assignment_2/contracts/Bank.sol\":407:434  return balances[msg.sender] */\n      swap1\n      pop\n        /* \"GitHub/Blockchain/Mandatory_assignment_2/contracts/Bank.sol\":354:444  function getBalance()public returns (uint){\r... */\n      swap1\n      jump\t// out\n        /* \"GitHub/Blockchain/Mandatory_assignment_2/contracts/Bank.sol\":48:87  mapping(address => uint)public balances */\n    tag_12:\n      mstore(0x20, 0x0)\n      dup1\n      0x0\n      mstore\n      keccak256(0x0, 0x40)\n      0x0\n      swap2\n      pop\n      swap1\n      pop\n      sload\n      dup2\n      jump\t// out\n        /* \"GitHub/Blockchain/Mandatory_assignment_2/contracts/Bank.sol\":188:346  function withdraw(uint amount)public {\r... */\n    tag_16:\n        /* \"GitHub/Blockchain/Mandatory_assignment_2/contracts/Bank.sol\":250:258  balances */\n      0x0\n        /* \"GitHub/Blockchain/Mandatory_assignment_2/contracts/Bank.sol\":250:270  balances[msg.sender] */\n      dup1\n        /* \"GitHub/Blockchain/Mandatory_assignment_2/contracts/Bank.sol\":259:269  msg.sender */\n      caller\n        /* \"GitHub/Blockchain/Mandatory_assignment_2/contracts/Bank.sol\":250:270  balances[msg.sender] */\n      0xffffffffffffffffffffffffffffffffffffffff\n      and\n      0xffffffffffffffffffffffffffffffffffffffff\n      and\n      dup2\n      mstore\n      0x20\n      add\n      swap1\n      dup2\n      mstore\n      0x20\n      add\n      0x0\n      keccak256\n      sload\n        /* \"GitHub/Blockchain/Mandatory_assignment_2/contracts/Bank.sol\":240:246  amount */\n      dup2\n        /* \"GitHub/Blockchain/Mandatory_assignment_2/contracts/Bank.sol\":240:270  amount <= balances[msg.sender] */\n      gt\n      iszero\n        /* \"GitHub/Blockchain/Mandatory_assignment_2/contracts/Bank.sol\":236:329  if (amount <= balances[msg.sender]){\r... */\n      iszero\n      tag_21\n      jumpi\n        /* \"GitHub/Blockchain/Mandatory_assignment_2/contracts/Bank.sol\":309:315  amount */\n      dup1\n        /* \"GitHub/Blockchain/Mandatory_assignment_2/contracts/Bank.sol\":286:294  balances */\n      0x0\n        /* \"GitHub/Blockchain/Mandatory_assignment_2/contracts/Bank.sol\":286:306  balances[msg.sender] */\n      dup1\n        /* \"GitHub/Blockchain/Mandatory_assignment_2/contracts/Bank.sol\":295:305  msg.sender */\n      caller\n        /* \"GitHub/Blockchain/Mandatory_assignment_2/contracts/Bank.sol\":286:306  balances[msg.sender] */\n      0xffffffffffffffffffffffffffffffffffffffff\n      and\n      0xffffffffffffffffffffffffffffffffffffffff\n      and\n      dup2\n      mstore\n      0x20\n      add\n      swap1\n      dup2\n      mstore\n      0x20\n      add\n      0x0\n      keccak256\n      0x0\n        /* \"GitHub/Blockchain/Mandatory_assignment_2/contracts/Bank.sol\":286:315  balances[msg.sender]-= amount */\n      dup3\n      dup3\n      sload\n      sub\n      swap3\n      pop\n      pop\n      dup2\n      swap1\n      sstore\n      pop\n        /* \"GitHub/Blockchain/Mandatory_assignment_2/contracts/Bank.sol\":236:329  if (amount <= balances[msg.sender]){\r... */\n    tag_21:\n        /* \"GitHub/Blockchain/Mandatory_assignment_2/contracts/Bank.sol\":188:346  function withdraw(uint amount)public {\r... */\n      pop\n      jump\t// out\n        /* \"GitHub/Blockchain/Mandatory_assignment_2/contracts/Bank.sol\":96:180  function deposit()public payable{\r... */\n    tag_18:\n        /* \"GitHub/Blockchain/Mandatory_assignment_2/contracts/Bank.sol\":163:172  msg.value */\n      callvalue\n        /* \"GitHub/Blockchain/Mandatory_assignment_2/contracts/Bank.sol\":139:147  balances */\n      0x0\n        /* \"GitHub/Blockchain/Mandatory_assignment_2/contracts/Bank.sol\":139:159  balances[msg.sender] */\n      dup1\n        /* \"GitHub/Blockchain/Mandatory_assignment_2/contracts/Bank.sol\":148:158  msg.sender */\n      caller\n        /* \"GitHub/Blockchain/Mandatory_assignment_2/contracts/Bank.sol\":139:159  balances[msg.sender] */\n      0xffffffffffffffffffffffffffffffffffffffff\n      and\n      0xffffffffffffffffffffffffffffffffffffffff\n      and\n      dup2\n      mstore\n      0x20\n      add\n      swap1\n      dup2\n      mstore\n      0x20\n      add\n      0x0\n      keccak256\n      0x0\n        /* \"GitHub/Blockchain/Mandatory_assignment_2/contracts/Bank.sol\":139:172  balances[msg.sender] += msg.value */\n      dup3\n      dup3\n      sload\n      add\n      swap3\n      pop\n      pop\n      dup2\n      swap1\n      sstore\n      pop\n        /* \"GitHub/Blockchain/Mandatory_assignment_2/contracts/Bank.sol\":96:180  function deposit()public payable{\r... */\n      jump\t// out\n\n    auxdata: 0xa165627a7a723058201a1009699968321865fc8b7558a1d4bdc6fd3bc8daef8b526de16b62d0c759930029\n}\n",
				"bytecode": {
					"linkReferences": {},
					"object": "608060405234801561001057600080fd5b506102ab806100206000396000f3fe608060405260043610610062576000357c0100000000000000000000000000000000000000000000000000000000900463ffffffff16806312065fe01461006757806327e235e3146100925780632e1a7d4d146100f7578063d0e30db014610132575b600080fd5b34801561007357600080fd5b5061007c61013c565b6040518082815260200191505060405180910390f35b34801561009e57600080fd5b506100e1600480360360208110156100b557600080fd5b81019080803573ffffffffffffffffffffffffffffffffffffffff169060200190929190505050610182565b6040518082815260200191505060405180910390f35b34801561010357600080fd5b506101306004803603602081101561011a57600080fd5b810190808035906020019092919050505061019a565b005b61013a610231565b005b60008060003373ffffffffffffffffffffffffffffffffffffffff1673ffffffffffffffffffffffffffffffffffffffff16815260200190815260200160002054905090565b60006020528060005260406000206000915090505481565b6000803373ffffffffffffffffffffffffffffffffffffffff1673ffffffffffffffffffffffffffffffffffffffff168152602001908152602001600020548111151561022e57806000803373ffffffffffffffffffffffffffffffffffffffff1673ffffffffffffffffffffffffffffffffffffffff168152602001908152602001600020600082825403925050819055505b50565b346000803373ffffffffffffffffffffffffffffffffffffffff1673ffffffffffffffffffffffffffffffffffffffff1681526020019081526020016000206000828254019250508190555056fea165627a7a723058201a1009699968321865fc8b7558a1d4bdc6fd3bc8daef8b526de16b62d0c759930029",
					"opcodes": "PUSH1 0x80 PUSH1 0x40 MSTORE CALLVALUE DUP1 ISZERO PUSH2 0x10 JUMPI PUSH1 0x0 DUP1 REVERT JUMPDEST POP PUSH2 0x2AB DUP1 PUSH2 0x20 PUSH1 0x0 CODECOPY PUSH1 0x0 RETURN INVALID PUSH1 0x80 PUSH1 0x40 MSTORE PUSH1 0x4 CALLDATASIZE LT PUSH2 0x62 JUMPI PUSH1 0x0 CALLDATALOAD PUSH29 0x100000000000000000000000000000000000000000000000000000000 SWAP1 DIV PUSH4 0xFFFFFFFF AND DUP1 PUSH4 0x12065FE0 EQ PUSH2 0x67 JUMPI DUP1 PUSH4 0x27E235E3 EQ PUSH2 0x92 JUMPI DUP1 PUSH4 0x2E1A7D4D EQ PUSH2 0xF7 JUMPI DUP1 PUSH4 0xD0E30DB0 EQ PUSH2 0x132 JUMPI JUMPDEST PUSH1 0x0 DUP1 REVERT JUMPDEST CALLVALUE DUP1 ISZERO PUSH2 0x73 JUMPI PUSH1 0x0 DUP1 REVERT JUMPDEST POP PUSH2 0x7C PUSH2 0x13C JUMP JUMPDEST PUSH1 0x40 MLOAD DUP1 DUP3 DUP2 MSTORE PUSH1 0x20 ADD SWAP2 POP POP PUSH1 0x40 MLOAD DUP1 SWAP2 SUB SWAP1 RETURN JUMPDEST CALLVALUE DUP1 ISZERO PUSH2 0x9E JUMPI PUSH1 0x0 DUP1 REVERT JUMPDEST POP PUSH2 0xE1 PUSH1 0x4 DUP1 CALLDATASIZE SUB PUSH1 0x20 DUP2 LT ISZERO PUSH2 0xB5 JUMPI PUSH1 0x0 DUP1 REVERT JUMPDEST DUP2 ADD SWAP1 DUP1 DUP1 CALLDATALOAD PUSH20 0xFFFFFFFFFFFFFFFFFFFFFFFFFFFFFFFFFFFFFFFF AND SWAP1 PUSH1 0x20 ADD SWAP1 SWAP3 SWAP2 SWAP1 POP POP POP PUSH2 0x182 JUMP JUMPDEST PUSH1 0x40 MLOAD DUP1 DUP3 DUP2 MSTORE PUSH1 0x20 ADD SWAP2 POP POP PUSH1 0x40 MLOAD DUP1 SWAP2 SUB SWAP1 RETURN JUMPDEST CALLVALUE DUP1 ISZERO PUSH2 0x103 JUMPI PUSH1 0x0 DUP1 REVERT JUMPDEST POP PUSH2 0x130 PUSH1 0x4 DUP1 CALLDATASIZE SUB PUSH1 0x20 DUP2 LT ISZERO PUSH2 0x11A JUMPI PUSH1 0x0 DUP1 REVERT JUMPDEST DUP2 ADD SWAP1 DUP1 DUP1 CALLDATALOAD SWAP1 PUSH1 0x20 ADD SWAP1 SWAP3 SWAP2 SWAP1 POP POP POP PUSH2 0x19A JUMP JUMPDEST STOP JUMPDEST PUSH2 0x13A PUSH2 0x231 JUMP JUMPDEST STOP JUMPDEST PUSH1 0x0 DUP1 PUSH1 0x0 CALLER PUSH20 0xFFFFFFFFFFFFFFFFFFFFFFFFFFFFFFFFFFFFFFFF AND PUSH20 0xFFFFFFFFFFFFFFFFFFFFFFFFFFFFFFFFFFFFFFFF AND DUP2 MSTORE PUSH1 0x20 ADD SWAP1 DUP2 MSTORE PUSH1 0x20 ADD PUSH1 0x0 KECCAK256 SLOAD SWAP1 POP SWAP1 JUMP JUMPDEST PUSH1 0x0 PUSH1 0x20 MSTORE DUP1 PUSH1 0x0 MSTORE PUSH1 0x40 PUSH1 0x0 KECCAK256 PUSH1 0x0 SWAP2 POP SWAP1 POP SLOAD DUP2 JUMP JUMPDEST PUSH1 0x0 DUP1 CALLER PUSH20 0xFFFFFFFFFFFFFFFFFFFFFFFFFFFFFFFFFFFFFFFF AND PUSH20 0xFFFFFFFFFFFFFFFFFFFFFFFFFFFFFFFFFFFFFFFF AND DUP2 MSTORE PUSH1 0x20 ADD SWAP1 DUP2 MSTORE PUSH1 0x20 ADD PUSH1 0x0 KECCAK256 SLOAD DUP2 GT ISZERO ISZERO PUSH2 0x22E JUMPI DUP1 PUSH1 0x0 DUP1 CALLER PUSH20 0xFFFFFFFFFFFFFFFFFFFFFFFFFFFFFFFFFFFFFFFF AND PUSH20 0xFFFFFFFFFFFFFFFFFFFFFFFFFFFFFFFFFFFFFFFF AND DUP2 MSTORE PUSH1 0x20 ADD SWAP1 DUP2 MSTORE PUSH1 0x20 ADD PUSH1 0x0 KECCAK256 PUSH1 0x0 DUP3 DUP3 SLOAD SUB SWAP3 POP POP DUP2 SWAP1 SSTORE POP JUMPDEST POP JUMP JUMPDEST CALLVALUE PUSH1 0x0 DUP1 CALLER PUSH20 0xFFFFFFFFFFFFFFFFFFFFFFFFFFFFFFFFFFFFFFFF AND PUSH20 0xFFFFFFFFFFFFFFFFFFFFFFFFFFFFFFFFFFFFFFFF AND DUP2 MSTORE PUSH1 0x20 ADD SWAP1 DUP2 MSTORE PUSH1 0x20 ADD PUSH1 0x0 KECCAK256 PUSH1 0x0 DUP3 DUP3 SLOAD ADD SWAP3 POP POP DUP2 SWAP1 SSTORE POP JUMP INVALID LOG1 PUSH6 0x627A7A723058 KECCAK256 BYTE LT MULMOD PUSH10 0x9968321865FC8B7558A1 0xd4 0xbd 0xc6 REVERT EXTCODESIZE 0xc8 0xda 0xef DUP12 MSTORE PUSH14 0xE16B62D0C7599300290000000000 "
				},
				"gasEstimates": {
					"creation": {
						"codeDepositCost": "136600",
						"executionCost": "183",
						"totalCost": "136783"
					},
					"external": {
						"balances(address)": "580",
						"deposit()": "20496",
						"getBalance()": "491",
						"withdraw(uint256)": "20901"
					}
				},
				"methodIdentifiers": {
					"balances(address)": "27e235e3",
					"deposit()": "d0e30db0",
					"getBalance()": "12065fe0",
					"withdraw(uint256)": "2e1a7d4d"
				}
			},
			"userdoc": {
				"methods": {}
			}
		}
	}
}